{
  "_format": "hh-sol-artifact-1",
  "contractName": "IPNFT",
  "sourceName": "contracts/IPNFT.sol",
  "abi": [
    {
      "inputs": [],
      "stateMutability": "nonpayable",
      "type": "constructor"
    },
    {
      "anonymous": false,
      "inputs": [
        {
          "indexed": true,
          "internalType": "address",
          "name": "owner",
          "type": "address"
        },
        {
          "indexed": true,
          "internalType": "address",
          "name": "approved",
          "type": "address"
        },
        {
          "indexed": true,
          "internalType": "uint256",
          "name": "tokenId",
          "type": "uint256"
        }
      ],
      "name": "Approval",
      "type": "event"
    },
    {
      "anonymous": false,
      "inputs": [
        {
          "indexed": true,
          "internalType": "address",
          "name": "owner",
          "type": "address"
        },
        {
          "indexed": true,
          "internalType": "address",
          "name": "operator",
          "type": "address"
        },
        {
          "indexed": false,
          "internalType": "bool",
          "name": "approved",
          "type": "bool"
        }
      ],
      "name": "ApprovalForAll",
      "type": "event"
    },
    {
      "anonymous": false,
      "inputs": [
        {
          "indexed": true,
          "internalType": "uint256",
          "name": "tokenId",
          "type": "uint256"
        },
        {
          "indexed": true,
          "internalType": "address",
          "name": "owner",
          "type": "address"
        },
        {
          "indexed": false,
          "internalType": "string",
          "name": "metadataURI",
          "type": "string"
        }
      ],
      "name": "NFTMinted",
      "type": "event"
    },
    {
      "anonymous": false,
      "inputs": [
        {
          "indexed": true,
          "internalType": "address",
          "name": "previousOwner",
          "type": "address"
        },
        {
          "indexed": true,
          "internalType": "address",
          "name": "newOwner",
          "type": "address"
        }
      ],
      "name": "OwnershipTransferred",
      "type": "event"
    },
    {
      "anonymous": false,
      "inputs": [
        {
          "indexed": true,
          "internalType": "address",
          "name": "from",
          "type": "address"
        },
        {
          "indexed": true,
          "internalType": "address",
          "name": "to",
          "type": "address"
        },
        {
          "indexed": true,
          "internalType": "uint256",
          "name": "tokenId",
          "type": "uint256"
        }
      ],
      "name": "Transfer",
      "type": "event"
    },
    {
      "inputs": [
        {
          "internalType": "address",
          "name": "to",
          "type": "address"
        },
        {
          "internalType": "uint256",
          "name": "tokenId",
          "type": "uint256"
        }
      ],
      "name": "approve",
      "outputs": [],
      "stateMutability": "nonpayable",
      "type": "function"
    },
    {
      "inputs": [
        {
          "internalType": "address",
          "name": "owner",
          "type": "address"
        }
      ],
      "name": "balanceOf",
      "outputs": [
        {
          "internalType": "uint256",
          "name": "",
          "type": "uint256"
        }
      ],
      "stateMutability": "view",
      "type": "function"
    },
    {
      "inputs": [
        {
          "internalType": "uint256",
          "name": "tokenId",
          "type": "uint256"
        }
      ],
      "name": "getApproved",
      "outputs": [
        {
          "internalType": "address",
          "name": "",
          "type": "address"
        }
      ],
      "stateMutability": "view",
      "type": "function"
    },
    {
      "inputs": [
        {
          "internalType": "uint256",
          "name": "tokenId",
          "type": "uint256"
        }
      ],
      "name": "getMetadata",
      "outputs": [
        {
          "internalType": "string",
          "name": "",
          "type": "string"
        }
      ],
      "stateMutability": "view",
      "type": "function"
    },
    {
      "inputs": [
        {
          "internalType": "address",
          "name": "owner",
          "type": "address"
        },
        {
          "internalType": "address",
          "name": "operator",
          "type": "address"
        }
      ],
      "name": "isApprovedForAll",
      "outputs": [
        {
          "internalType": "bool",
          "name": "",
          "type": "bool"
        }
      ],
      "stateMutability": "view",
      "type": "function"
    },
    {
      "inputs": [
        {
          "internalType": "address",
          "name": "to",
          "type": "address"
        },
        {
          "internalType": "string",
          "name": "metadataURI",
          "type": "string"
        }
      ],
      "name": "mintNFT",
      "outputs": [
        {
          "internalType": "uint256",
          "name": "",
          "type": "uint256"
        }
      ],
      "stateMutability": "nonpayable",
      "type": "function"
    },
    {
      "inputs": [],
      "name": "name",
      "outputs": [
        {
          "internalType": "string",
          "name": "",
          "type": "string"
        }
      ],
      "stateMutability": "view",
      "type": "function"
    },
    {
      "inputs": [],
      "name": "owner",
      "outputs": [
        {
          "internalType": "address",
          "name": "",
          "type": "address"
        }
      ],
      "stateMutability": "view",
      "type": "function"
    },
    {
      "inputs": [
        {
          "internalType": "uint256",
          "name": "tokenId",
          "type": "uint256"
        }
      ],
      "name": "ownerOf",
      "outputs": [
        {
          "internalType": "address",
          "name": "",
          "type": "address"
        }
      ],
      "stateMutability": "view",
      "type": "function"
    },
    {
      "inputs": [],
      "name": "renounceOwnership",
      "outputs": [],
      "stateMutability": "nonpayable",
      "type": "function"
    },
    {
      "inputs": [
        {
          "internalType": "address",
          "name": "from",
          "type": "address"
        },
        {
          "internalType": "address",
          "name": "to",
          "type": "address"
        },
        {
          "internalType": "uint256",
          "name": "tokenId",
          "type": "uint256"
        }
      ],
      "name": "safeTransferFrom",
      "outputs": [],
      "stateMutability": "nonpayable",
      "type": "function"
    },
    {
      "inputs": [
        {
          "internalType": "address",
          "name": "from",
          "type": "address"
        },
        {
          "internalType": "address",
          "name": "to",
          "type": "address"
        },
        {
          "internalType": "uint256",
          "name": "tokenId",
          "type": "uint256"
        },
        {
          "internalType": "bytes",
          "name": "data",
          "type": "bytes"
        }
      ],
      "name": "safeTransferFrom",
      "outputs": [],
      "stateMutability": "nonpayable",
      "type": "function"
    },
    {
      "inputs": [
        {
          "internalType": "address",
          "name": "operator",
          "type": "address"
        },
        {
          "internalType": "bool",
          "name": "approved",
          "type": "bool"
        }
      ],
      "name": "setApprovalForAll",
      "outputs": [],
      "stateMutability": "nonpayable",
      "type": "function"
    },
    {
      "inputs": [
        {
          "internalType": "bytes4",
          "name": "interfaceId",
          "type": "bytes4"
        }
      ],
      "name": "supportsInterface",
      "outputs": [
        {
          "internalType": "bool",
          "name": "",
          "type": "bool"
        }
      ],
      "stateMutability": "view",
      "type": "function"
    },
    {
      "inputs": [],
      "name": "symbol",
      "outputs": [
        {
          "internalType": "string",
          "name": "",
          "type": "string"
        }
      ],
      "stateMutability": "view",
      "type": "function"
    },
    {
      "inputs": [
        {
          "internalType": "uint256",
          "name": "tokenId",
          "type": "uint256"
        }
      ],
      "name": "tokenURI",
      "outputs": [
        {
          "internalType": "string",
          "name": "",
          "type": "string"
        }
      ],
      "stateMutability": "view",
      "type": "function"
    },
    {
      "inputs": [
        {
          "internalType": "address",
          "name": "from",
          "type": "address"
        },
        {
          "internalType": "address",
          "name": "to",
          "type": "address"
        },
        {
          "internalType": "uint256",
          "name": "tokenId",
          "type": "uint256"
        }
      ],
      "name": "transferFrom",
      "outputs": [],
      "stateMutability": "nonpayable",
      "type": "function"
    },
    {
      "inputs": [
        {
          "internalType": "address",
          "name": "from",
          "type": "address"
        },
        {
          "internalType": "address",
          "name": "to",
          "type": "address"
        },
        {
          "internalType": "uint256",
          "name": "tokenId",
          "type": "uint256"
        }
      ],
      "name": "transferNFT",
      "outputs": [],
      "stateMutability": "nonpayable",
      "type": "function"
    },
    {
      "inputs": [
        {
          "internalType": "address",
          "name": "newOwner",
          "type": "address"
        }
      ],
      "name": "transferOwnership",
      "outputs": [],
      "stateMutability": "nonpayable",
      "type": "function"
    }
  ],
  "bytecode": "0x60806040523480156200001157600080fd5b506040518060400160405280600f81526020017f49504d616e6167656d656e744e465400000000000000000000000000000000008152506040518060400160405280600581526020017f49504e4654000000000000000000000000000000000000000000000000000000815250816000908051906020019062000096929190620001a6565b508060019080519060200190620000af929190620001a6565b505050620000d2620000c6620000d860201b60201c565b620000e060201b60201c565b620002bb565b600033905090565b6000600760009054906101000a900473ffffffffffffffffffffffffffffffffffffffff16905081600760006101000a81548173ffffffffffffffffffffffffffffffffffffffff021916908373ffffffffffffffffffffffffffffffffffffffff1602179055508173ffffffffffffffffffffffffffffffffffffffff168173ffffffffffffffffffffffffffffffffffffffff167f8be0079c531659141344cd1fd0a4f28419497f9722a3daafe3b4186f6b6457e060405160405180910390a35050565b828054620001b49062000256565b90600052602060002090601f016020900481019282620001d8576000855562000224565b82601f10620001f357805160ff191683800117855562000224565b8280016001018555821562000224579182015b828111156200022357825182559160200191906001019062000206565b5b50905062000233919062000237565b5090565b5b808211156200025257600081600090555060010162000238565b5090565b600060028204905060018216806200026f57607f821691505b602082108114156200028657620002856200028c565b5b50919050565b7f4e487b7100000000000000000000000000000000000000000000000000000000600052602260045260246000fd5b6131a080620002cb6000396000f3fe608060405234801561001057600080fd5b50600436106101215760003560e01c8063715018a6116100ad578063b88d4fde11610071578063b88d4fde14610306578063c87b56dd14610322578063e985e9c514610352578063eacabe1414610382578063f2fde38b146103b257610121565b8063715018a6146102745780638da5cb5b1461027e57806395d89b411461029c578063a22cb465146102ba578063a574cea4146102d657610121565b806323b872dd116100f457806323b872dd146101c057806342842e0e146101dc5780636352211e146101f857806369e9cae11461022857806370a082311461024457610121565b806301ffc9a71461012657806306fdde0314610156578063081812fc14610174578063095ea7b3146101a4575b600080fd5b610140600480360381019061013b9190612376565b6103ce565b60405161014d919061277c565b60405180910390f35b61015e6104b0565b60405161016b9190612797565b60405180910390f35b61018e600480360381019061018991906123c8565b610542565b60405161019b9190612715565b60405180910390f35b6101be60048036038101906101b9919061233a565b610588565b005b6101da60048036038101906101d591906121e0565b6106a0565b005b6101f660048036038101906101f191906121e0565b610700565b005b610212600480360381019061020d91906123c8565b610720565b60405161021f9190612715565b60405180910390f35b610242600480360381019061023d91906121e0565b6107a7565b005b61025e6004803603810190610259919061217b565b61082d565b60405161026b91906129b9565b60405180910390f35b61027c6108e5565b005b6102866108f9565b6040516102939190612715565b60405180910390f35b6102a4610923565b6040516102b19190612797565b60405180910390f35b6102d460048036038101906102cf91906122aa565b6109b5565b005b6102f060048036038101906102eb91906123c8565b6109cb565b6040516102fd9190612797565b60405180910390f35b610320600480360381019061031b919061222f565b610a25565b005b61033c600480360381019061033791906123c8565b610a87565b6040516103499190612797565b60405180910390f35b61036c600480360381019061036791906121a4565b610b9a565b604051610379919061277c565b60405180910390f35b61039c600480360381019061039791906122e6565b610c2e565b6040516103a991906129b9565b60405180910390f35b6103cc60048036038101906103c7919061217b565b610cc0565b005b60007f80ac58cd000000000000000000000000000000000000000000000000000000007bffffffffffffffffffffffffffffffffffffffffffffffffffffffff1916827bffffffffffffffffffffffffffffffffffffffffffffffffffffffff1916148061049957507f5b5e139f000000000000000000000000000000000000000000000000000000007bffffffffffffffffffffffffffffffffffffffffffffffffffffffff1916827bffffffffffffffffffffffffffffffffffffffffffffffffffffffff1916145b806104a957506104a882610d44565b5b9050919050565b6060600080546104bf90612bde565b80601f01602080910402602001604051908101604052809291908181526020018280546104eb90612bde565b80156105385780601f1061050d57610100808354040283529160200191610538565b820191906000526020600020905b81548152906001019060200180831161051b57829003601f168201915b5050505050905090565b600061054d82610dae565b6004600083815260200190815260200160002060009054906101000a900473ffffffffffffffffffffffffffffffffffffffff169050919050565b600061059382610720565b90508073ffffffffffffffffffffffffffffffffffffffff168373ffffffffffffffffffffffffffffffffffffffff161415610604576040517f08c379a00000000000000000000000000000000000000000000000000000000081526004016105fb90612979565b60405180910390fd5b8073ffffffffffffffffffffffffffffffffffffffff16610623610df9565b73ffffffffffffffffffffffffffffffffffffffff16148061065257506106518161064c610df9565b610b9a565b5b610691576040517f08c379a000000000000000000000000000000000000000000000000000000000815260040161068890612999565b60405180910390fd5b61069b8383610e01565b505050565b6106b16106ab610df9565b82610eba565b6106f0576040517f08c379a00000000000000000000000000000000000000000000000000000000081526004016106e7906127b9565b60405180910390fd5b6106fb838383610f4f565b505050565b61071b83838360405180602001604052806000815250610a25565b505050565b60008061072c83611249565b9050600073ffffffffffffffffffffffffffffffffffffffff168173ffffffffffffffffffffffffffffffffffffffff16141561079e576040517f08c379a000000000000000000000000000000000000000000000000000000000815260040161079590612959565b60405180910390fd5b80915050919050565b8273ffffffffffffffffffffffffffffffffffffffff166107c782610720565b73ffffffffffffffffffffffffffffffffffffffff161461081d576040517f08c379a0000000000000000000000000000000000000000000000000000000008152600401610814906128d9565b60405180910390fd5b610828838383610f4f565b505050565b60008073ffffffffffffffffffffffffffffffffffffffff168273ffffffffffffffffffffffffffffffffffffffff16141561089e576040517f08c379a0000000000000000000000000000000000000000000000000000000008152600401610895906128b9565b60405180910390fd5b600360008373ffffffffffffffffffffffffffffffffffffffff1673ffffffffffffffffffffffffffffffffffffffff168152602001908152602001600020549050919050565b6108ed611286565b6108f76000611304565b565b6000600760009054906101000a900473ffffffffffffffffffffffffffffffffffffffff16905090565b60606001805461093290612bde565b80601f016020809104026020016040519081016040528092919081815260200182805461095e90612bde565b80156109ab5780601f10610980576101008083540402835291602001916109ab565b820191906000526020600020905b81548152906001019060200180831161098e57829003601f168201915b5050505050905090565b6109c76109c0610df9565b83836113ca565b5050565b60606109d682611537565b610a15576040517f08c379a0000000000000000000000000000000000000000000000000000000008152600401610a0c90612899565b60405180910390fd5b610a1e82610a87565b9050919050565b610a36610a30610df9565b83610eba565b610a75576040517f08c379a0000000000000000000000000000000000000000000000000000000008152600401610a6c906127b9565b60405180910390fd5b610a8184848484611578565b50505050565b6060610a9282610dae565b6000600660008481526020019081526020016000208054610ab290612bde565b80601f0160208091040260200160405190810160405280929190818152602001828054610ade90612bde565b8015610b2b5780601f10610b0057610100808354040283529160200191610b2b565b820191906000526020600020905b815481529060010190602001808311610b0e57829003601f168201915b505050505090506000610b3c6115d4565b9050600081511415610b52578192505050610b95565b600082511115610b87578082604051602001610b6f9291906126f1565b60405160208183030381529060405292505050610b95565b610b90846115eb565b925050505b919050565b6000600560008473ffffffffffffffffffffffffffffffffffffffff1673ffffffffffffffffffffffffffffffffffffffff16815260200190815260200160002060008373ffffffffffffffffffffffffffffffffffffffff1673ffffffffffffffffffffffffffffffffffffffff16815260200190815260200160002060009054906101000a900460ff16905092915050565b6000610c38611286565b600060086000815480929190610c4d90612c41565b919050559050610c5d8482611653565b610c678184611671565b8373ffffffffffffffffffffffffffffffffffffffff16817f06becd955c918828f6e985541acbf49cc842c9e9bd569fffc7698e721ef1357585604051610cae9190612797565b60405180910390a38091505092915050565b610cc8611286565b600073ffffffffffffffffffffffffffffffffffffffff168173ffffffffffffffffffffffffffffffffffffffff161415610d38576040517f08c379a0000000000000000000000000000000000000000000000000000000008152600401610d2f906127f9565b60405180910390fd5b610d4181611304565b50565b60007f01ffc9a7000000000000000000000000000000000000000000000000000000007bffffffffffffffffffffffffffffffffffffffffffffffffffffffff1916827bffffffffffffffffffffffffffffffffffffffffffffffffffffffff1916149050919050565b610db781611537565b610df6576040517f08c379a0000000000000000000000000000000000000000000000000000000008152600401610ded90612959565b60405180910390fd5b50565b600033905090565b816004600083815260200190815260200160002060006101000a81548173ffffffffffffffffffffffffffffffffffffffff021916908373ffffffffffffffffffffffffffffffffffffffff160217905550808273ffffffffffffffffffffffffffffffffffffffff16610e7483610720565b73ffffffffffffffffffffffffffffffffffffffff167f8c5be1e5ebec7d5bd14f71427d1e84f3dd0314c0f7b2291e5b200ac8c7c3b92560405160405180910390a45050565b600080610ec683610720565b90508073ffffffffffffffffffffffffffffffffffffffff168473ffffffffffffffffffffffffffffffffffffffff161480610f085750610f078185610b9a565b5b80610f4657508373ffffffffffffffffffffffffffffffffffffffff16610f2e84610542565b73ffffffffffffffffffffffffffffffffffffffff16145b91505092915050565b8273ffffffffffffffffffffffffffffffffffffffff16610f6f82610720565b73ffffffffffffffffffffffffffffffffffffffff1614610fc5576040517f08c379a0000000000000000000000000000000000000000000000000000000008152600401610fbc90612819565b60405180910390fd5b600073ffffffffffffffffffffffffffffffffffffffff168273ffffffffffffffffffffffffffffffffffffffff161415611035576040517f08c379a000000000000000000000000000000000000000000000000000000000815260040161102c90612859565b60405180910390fd5b61104283838360016116e5565b8273ffffffffffffffffffffffffffffffffffffffff1661106282610720565b73ffffffffffffffffffffffffffffffffffffffff16146110b8576040517f08c379a00000000000000000000000000000000000000000000000000000000081526004016110af90612819565b60405180910390fd5b6004600082815260200190815260200160002060006101000a81549073ffffffffffffffffffffffffffffffffffffffff02191690556001600360008573ffffffffffffffffffffffffffffffffffffffff1673ffffffffffffffffffffffffffffffffffffffff168152602001908152602001600020600082825403925050819055506001600360008473ffffffffffffffffffffffffffffffffffffffff1673ffffffffffffffffffffffffffffffffffffffff16815260200190815260200160002060008282540192505081905550816002600083815260200190815260200160002060006101000a81548173ffffffffffffffffffffffffffffffffffffffff021916908373ffffffffffffffffffffffffffffffffffffffff160217905550808273ffffffffffffffffffffffffffffffffffffffff168473ffffffffffffffffffffffffffffffffffffffff167fddf252ad1be2c89b69c2b068fc378daa952ba7f163c4a11628f55a4df523b3ef60405160405180910390a4611244838383600161180b565b505050565b60006002600083815260200190815260200160002060009054906101000a900473ffffffffffffffffffffffffffffffffffffffff169050919050565b61128e610df9565b73ffffffffffffffffffffffffffffffffffffffff166112ac6108f9565b73ffffffffffffffffffffffffffffffffffffffff1614611302576040517f08c379a00000000000000000000000000000000000000000000000000000000081526004016112f990612939565b60405180910390fd5b565b6000600760009054906101000a900473ffffffffffffffffffffffffffffffffffffffff16905081600760006101000a81548173ffffffffffffffffffffffffffffffffffffffff021916908373ffffffffffffffffffffffffffffffffffffffff1602179055508173ffffffffffffffffffffffffffffffffffffffff168173ffffffffffffffffffffffffffffffffffffffff167f8be0079c531659141344cd1fd0a4f28419497f9722a3daafe3b4186f6b6457e060405160405180910390a35050565b8173ffffffffffffffffffffffffffffffffffffffff168373ffffffffffffffffffffffffffffffffffffffff161415611439576040517f08c379a000000000000000000000000000000000000000000000000000000000815260040161143090612879565b60405180910390fd5b80600560008573ffffffffffffffffffffffffffffffffffffffff1673ffffffffffffffffffffffffffffffffffffffff16815260200190815260200160002060008473ffffffffffffffffffffffffffffffffffffffff1673ffffffffffffffffffffffffffffffffffffffff16815260200190815260200160002060006101000a81548160ff0219169083151502179055508173ffffffffffffffffffffffffffffffffffffffff168373ffffffffffffffffffffffffffffffffffffffff167f17307eab39ab6107e8899845ad3d59bd9653f200f220920489ca2b5937696c318360405161152a919061277c565b60405180910390a3505050565b60008073ffffffffffffffffffffffffffffffffffffffff1661155983611249565b73ffffffffffffffffffffffffffffffffffffffff1614159050919050565b611583848484610f4f565b61158f84848484611811565b6115ce576040517f08c379a00000000000000000000000000000000000000000000000000000000081526004016115c5906127d9565b60405180910390fd5b50505050565b606060405180602001604052806000815250905090565b60606115f682610dae565b60006116006115d4565b90506000815111611620576040518060200160405280600081525061164b565b8061162a846119a8565b60405160200161163b9291906126f1565b6040516020818303038152906040525b915050919050565b61166d828260405180602001604052806000815250611acc565b5050565b61167a82611537565b6116b9576040517f08c379a00000000000000000000000000000000000000000000000000000000081526004016116b0906128f9565b60405180910390fd5b806006600084815260200190815260200160002090805190602001906116e0929190611f9f565b505050565b600181111561180557600073ffffffffffffffffffffffffffffffffffffffff168473ffffffffffffffffffffffffffffffffffffffff16146117795780600360008673ffffffffffffffffffffffffffffffffffffffff1673ffffffffffffffffffffffffffffffffffffffff16815260200190815260200160002060008282546117719190612af4565b925050819055505b600073ffffffffffffffffffffffffffffffffffffffff168373ffffffffffffffffffffffffffffffffffffffff16146118045780600360008573ffffffffffffffffffffffffffffffffffffffff1673ffffffffffffffffffffffffffffffffffffffff16815260200190815260200160002060008282546117fc9190612a9e565b925050819055505b5b50505050565b50505050565b60006118328473ffffffffffffffffffffffffffffffffffffffff16611b27565b1561199b578373ffffffffffffffffffffffffffffffffffffffff1663150b7a0261185b610df9565b8786866040518563ffffffff1660e01b815260040161187d9493929190612730565b602060405180830381600087803b15801561189757600080fd5b505af19250505080156118c857506040513d601f19601f820116820180604052508101906118c5919061239f565b60015b61194b573d80600081146118f8576040519150601f19603f3d011682016040523d82523d6000602084013e6118fd565b606091505b50600081511415611943576040517f08c379a000000000000000000000000000000000000000000000000000000000815260040161193a906127d9565b60405180910390fd5b805181602001fd5b63150b7a0260e01b7bffffffffffffffffffffffffffffffffffffffffffffffffffffffff1916817bffffffffffffffffffffffffffffffffffffffffffffffffffffffff1916149150506119a0565b600190505b949350505050565b6060600060016119b784611b4a565b01905060008167ffffffffffffffff8111156119fc577f4e487b7100000000000000000000000000000000000000000000000000000000600052604160045260246000fd5b6040519080825280601f01601f191660200182016040528015611a2e5781602001600182028036833780820191505090505b509050600082602001820190505b600115611ac1578080600190039150507f3031323334353637383961626364656600000000000000000000000000000000600a86061a8153600a8581611aab577f4e487b7100000000000000000000000000000000000000000000000000000000600052601260045260246000fd5b0494506000851415611abc57611ac1565b611a3c565b819350505050919050565b611ad68383611d81565b611ae36000848484611811565b611b22576040517f08c379a0000000000000000000000000000000000000000000000000000000008152600401611b19906127d9565b60405180910390fd5b505050565b6000808273ffffffffffffffffffffffffffffffffffffffff163b119050919050565b600080600090507a184f03e93ff9f4daa797ed6e38ed64bf6a1f0100000000000000008310611bce577a184f03e93ff9f4daa797ed6e38ed64bf6a1f0100000000000000008381611bc4577f4e487b7100000000000000000000000000000000000000000000000000000000600052601260045260246000fd5b0492506040810190505b6d04ee2d6d415b85acef81000000008310611c31576d04ee2d6d415b85acef81000000008381611c27577f4e487b7100000000000000000000000000000000000000000000000000000000600052601260045260246000fd5b0492506020810190505b662386f26fc100008310611c8657662386f26fc100008381611c7c577f4e487b7100000000000000000000000000000000000000000000000000000000600052601260045260246000fd5b0492506010810190505b6305f5e1008310611cd5576305f5e1008381611ccb577f4e487b7100000000000000000000000000000000000000000000000000000000600052601260045260246000fd5b0492506008810190505b6127108310611d20576127108381611d16577f4e487b7100000000000000000000000000000000000000000000000000000000600052601260045260246000fd5b0492506004810190505b60648310611d695760648381611d5f577f4e487b7100000000000000000000000000000000000000000000000000000000600052601260045260246000fd5b0492506002810190505b600a8310611d78576001810190505b80915050919050565b600073ffffffffffffffffffffffffffffffffffffffff168273ffffffffffffffffffffffffffffffffffffffff161415611df1576040517f08c379a0000000000000000000000000000000000000000000000000000000008152600401611de890612919565b60405180910390fd5b611dfa81611537565b15611e3a576040517f08c379a0000000000000000000000000000000000000000000000000000000008152600401611e3190612839565b60405180910390fd5b611e486000838360016116e5565b611e5181611537565b15611e91576040517f08c379a0000000000000000000000000000000000000000000000000000000008152600401611e8890612839565b60405180910390fd5b6001600360008473ffffffffffffffffffffffffffffffffffffffff1673ffffffffffffffffffffffffffffffffffffffff16815260200190815260200160002060008282540192505081905550816002600083815260200190815260200160002060006101000a81548173ffffffffffffffffffffffffffffffffffffffff021916908373ffffffffffffffffffffffffffffffffffffffff160217905550808273ffffffffffffffffffffffffffffffffffffffff16600073ffffffffffffffffffffffffffffffffffffffff167fddf252ad1be2c89b69c2b068fc378daa952ba7f163c4a11628f55a4df523b3ef60405160405180910390a4611f9b60008383600161180b565b5050565b828054611fab90612bde565b90600052602060002090601f016020900481019282611fcd5760008555612014565b82601f10611fe657805160ff1916838001178555612014565b82800160010185558215612014579182015b82811115612013578251825591602001919060010190611ff8565b5b5090506120219190612025565b5090565b5b8082111561203e576000816000905550600101612026565b5090565b6000612055612050846129f9565b6129d4565b90508281526020810184848401111561206d57600080fd5b612078848285612b9c565b509392505050565b600061209361208e84612a2a565b6129d4565b9050828152602081018484840111156120ab57600080fd5b6120b6848285612b9c565b509392505050565b6000813590506120cd8161310e565b92915050565b6000813590506120e281613125565b92915050565b6000813590506120f78161313c565b92915050565b60008151905061210c8161313c565b92915050565b600082601f83011261212357600080fd5b8135612133848260208601612042565b91505092915050565b600082601f83011261214d57600080fd5b813561215d848260208601612080565b91505092915050565b60008135905061217581613153565b92915050565b60006020828403121561218d57600080fd5b600061219b848285016120be565b91505092915050565b600080604083850312156121b757600080fd5b60006121c5858286016120be565b92505060206121d6858286016120be565b9150509250929050565b6000806000606084860312156121f557600080fd5b6000612203868287016120be565b9350506020612214868287016120be565b925050604061222586828701612166565b9150509250925092565b6000806000806080858703121561224557600080fd5b6000612253878288016120be565b9450506020612264878288016120be565b935050604061227587828801612166565b925050606085013567ffffffffffffffff81111561229257600080fd5b61229e87828801612112565b91505092959194509250565b600080604083850312156122bd57600080fd5b60006122cb858286016120be565b92505060206122dc858286016120d3565b9150509250929050565b600080604083850312156122f957600080fd5b6000612307858286016120be565b925050602083013567ffffffffffffffff81111561232457600080fd5b6123308582860161213c565b9150509250929050565b6000806040838503121561234d57600080fd5b600061235b858286016120be565b925050602061236c85828601612166565b9150509250929050565b60006020828403121561238857600080fd5b6000612396848285016120e8565b91505092915050565b6000602082840312156123b157600080fd5b60006123bf848285016120fd565b91505092915050565b6000602082840312156123da57600080fd5b60006123e884828501612166565b91505092915050565b6123fa81612b28565b82525050565b61240981612b3a565b82525050565b600061241a82612a5b565b6124248185612a71565b9350612434818560208601612bab565b61243d81612d17565b840191505092915050565b600061245382612a66565b61245d8185612a82565b935061246d818560208601612bab565b61247681612d17565b840191505092915050565b600061248c82612a66565b6124968185612a93565b93506124a6818560208601612bab565b80840191505092915050565b60006124bf602d83612a82565b91506124ca82612d28565b604082019050919050565b60006124e2603283612a82565b91506124ed82612d77565b604082019050919050565b6000612505602683612a82565b915061251082612dc6565b604082019050919050565b6000612528602583612a82565b915061253382612e15565b604082019050919050565b600061254b601c83612a82565b915061255682612e64565b602082019050919050565b600061256e602483612a82565b915061257982612e8d565b604082019050919050565b6000612591601983612a82565b915061259c82612edc565b602082019050919050565b60006125b4601483612a82565b91506125bf82612f05565b602082019050919050565b60006125d7602983612a82565b91506125e282612f2e565b604082019050919050565b60006125fa600d83612a82565b915061260582612f7d565b602082019050919050565b600061261d602e83612a82565b915061262882612fa6565b604082019050919050565b6000612640602083612a82565b915061264b82612ff5565b602082019050919050565b6000612663602083612a82565b915061266e8261301e565b602082019050919050565b6000612686601883612a82565b915061269182613047565b602082019050919050565b60006126a9602183612a82565b91506126b482613070565b604082019050919050565b60006126cc603d83612a82565b91506126d7826130bf565b604082019050919050565b6126eb81612b92565b82525050565b60006126fd8285612481565b91506127098284612481565b91508190509392505050565b600060208201905061272a60008301846123f1565b92915050565b600060808201905061274560008301876123f1565b61275260208301866123f1565b61275f60408301856126e2565b8181036060830152612771818461240f565b905095945050505050565b60006020820190506127916000830184612400565b92915050565b600060208201905081810360008301526127b18184612448565b905092915050565b600060208201905081810360008301526127d2816124b2565b9050919050565b600060208201905081810360008301526127f2816124d5565b9050919050565b60006020820190508181036000830152612812816124f8565b9050919050565b600060208201905081810360008301526128328161251b565b9050919050565b600060208201905081810360008301526128528161253e565b9050919050565b6000602082019050818103600083015261287281612561565b9050919050565b6000602082019050818103600083015261289281612584565b9050919050565b600060208201905081810360008301526128b2816125a7565b9050919050565b600060208201905081810360008301526128d2816125ca565b9050919050565b600060208201905081810360008301526128f2816125ed565b9050919050565b6000602082019050818103600083015261291281612610565b9050919050565b6000602082019050818103600083015261293281612633565b9050919050565b6000602082019050818103600083015261295281612656565b9050919050565b6000602082019050818103600083015261297281612679565b9050919050565b600060208201905081810360008301526129928161269c565b9050919050565b600060208201905081810360008301526129b2816126bf565b9050919050565b60006020820190506129ce60008301846126e2565b92915050565b60006129de6129ef565b90506129ea8282612c10565b919050565b6000604051905090565b600067ffffffffffffffff821115612a1457612a13612ce8565b5b612a1d82612d17565b9050602081019050919050565b600067ffffffffffffffff821115612a4557612a44612ce8565b5b612a4e82612d17565b9050602081019050919050565b600081519050919050565b600081519050919050565b600082825260208201905092915050565b600082825260208201905092915050565b600081905092915050565b6000612aa982612b92565b9150612ab483612b92565b9250827fffffffffffffffffffffffffffffffffffffffffffffffffffffffffffffffff03821115612ae957612ae8612c8a565b5b828201905092915050565b6000612aff82612b92565b9150612b0a83612b92565b925082821015612b1d57612b1c612c8a565b5b828203905092915050565b6000612b3382612b72565b9050919050565b60008115159050919050565b60007fffffffff0000000000000000000000000000000000000000000000000000000082169050919050565b600073ffffffffffffffffffffffffffffffffffffffff82169050919050565b6000819050919050565b82818337600083830152505050565b60005b83811015612bc9578082015181840152602081019050612bae565b83811115612bd8576000848401525b50505050565b60006002820490506001821680612bf657607f821691505b60208210811415612c0a57612c09612cb9565b5b50919050565b612c1982612d17565b810181811067ffffffffffffffff82111715612c3857612c37612ce8565b5b80604052505050565b6000612c4c82612b92565b91507fffffffffffffffffffffffffffffffffffffffffffffffffffffffffffffffff821415612c7f57612c7e612c8a565b5b600182019050919050565b7f4e487b7100000000000000000000000000000000000000000000000000000000600052601160045260246000fd5b7f4e487b7100000000000000000000000000000000000000000000000000000000600052602260045260246000fd5b7f4e487b7100000000000000000000000000000000000000000000000000000000600052604160045260246000fd5b6000601f19601f8301169050919050565b7f4552433732313a2063616c6c6572206973206e6f7420746f6b656e206f776e6560008201527f72206f7220617070726f76656400000000000000000000000000000000000000602082015250565b7f4552433732313a207472616e7366657220746f206e6f6e20455243373231526560008201527f63656976657220696d706c656d656e7465720000000000000000000000000000602082015250565b7f4f776e61626c653a206e6577206f776e657220697320746865207a65726f206160008201527f6464726573730000000000000000000000000000000000000000000000000000602082015250565b7f4552433732313a207472616e736665722066726f6d20696e636f72726563742060008201527f6f776e6572000000000000000000000000000000000000000000000000000000602082015250565b7f4552433732313a20746f6b656e20616c7265616479206d696e74656400000000600082015250565b7f4552433732313a207472616e7366657220746f20746865207a65726f2061646460008201527f7265737300000000000000000000000000000000000000000000000000000000602082015250565b7f4552433732313a20617070726f766520746f2063616c6c657200000000000000600082015250565b7f546f6b656e20646f6573206e6f74206578697374000000000000000000000000600082015250565b7f4552433732313a2061646472657373207a65726f206973206e6f74206120766160008201527f6c6964206f776e65720000000000000000000000000000000000000000000000602082015250565b7f4e6f7420746865206f776e657200000000000000000000000000000000000000600082015250565b7f45524337323155524953746f726167653a2055524920736574206f66206e6f6e60008201527f6578697374656e7420746f6b656e000000000000000000000000000000000000602082015250565b7f4552433732313a206d696e7420746f20746865207a65726f2061646472657373600082015250565b7f4f776e61626c653a2063616c6c6572206973206e6f7420746865206f776e6572600082015250565b7f4552433732313a20696e76616c696420746f6b656e2049440000000000000000600082015250565b7f4552433732313a20617070726f76616c20746f2063757272656e74206f776e6560008201527f7200000000000000000000000000000000000000000000000000000000000000602082015250565b7f4552433732313a20617070726f76652063616c6c6572206973206e6f7420746f60008201527f6b656e206f776e6572206f7220617070726f76656420666f7220616c6c000000602082015250565b61311781612b28565b811461312257600080fd5b50565b61312e81612b3a565b811461313957600080fd5b50565b61314581612b46565b811461315057600080fd5b50565b61315c81612b92565b811461316757600080fd5b5056fea264697066735822122048622a2e9f03f6bb468bf651c76c91b0497dd276c3f78bb335012d36f48f1e1464736f6c63430008010033",
  "linkReferences": {},
  "deployedLinkReferences": {}
}